:1000000038C06CC051C050C04FC04EC04DC04CC075
:100010004BC04AC049C048C047C046C045C044C0A4
:1000200043C042C041C009021200010100803209F0
:10003000040000000000000012011001FF00000891
:10004000C016DC0500010102000112035400650026
:100050006D0070006C0061007400650012036F0099
:1000600062006400650076002E00610074000403E5
:10007000090411241FBECFE5D4E0DEBFCDBF10E0E0
:10008000A0E6B0E0E0E6F5E002C005900D92A236F1
:10009000B107D9F720E0A2E6B0E001C01D92AD386B
:1000A000B207E1F73AD15AC2ABCFA82FB92F80E0FF
:1000B00090E041E050EA609530E009C02D91822740
:1000C0009795879510F084279527305EC8F36F5F6A
:1000D000A8F30895EADF8D939D930895CF93CFB74A
:1000E000CF93DF93C395849BE9F7849B0BC0849BDC
:1000F00009C0849B07C0849B05C0849B03C0849B6C
:1001000001C089C06F93C0917000DD27C958DF4FCF
:100110002F9365E5849B03C02F916F91E6CF0F93DA
:100120001F934F9320E040E15F9300B3047104FB01
:1001300027F93F9350E03BE039C0147140642F77BA
:10014000012F5F5F1EC0406810B314712F775250AB
:100150001FC0406400B32F770471D1F15F5F00C00E
:1001600023C0406210B32F77147191F15F5F00C01C
:1001700025C004711027515012F45D5F000011502A
:1001800027952C3F10B3C8F614710127015027950D
:100190002C3FC8F64227499300B3047110274F73D0
:1001A000115027952C3FA8F64695469510B314712B
:1001B00079F00127015027952C3F98F66B5A60F390
:1001C000315000B3B0F600C010E41ABF002717C0CA
:1001D0003B503195C31BD04010E41ABF0881033C4B
:1001E000F9F00B34E9F020916E001981110F121310
:1001F000EDCF093651F10D3211F0013E39F7009380
:1002000075003F915F914F911F910F912F916F91C9
:10021000CAB7C6FD67CFDF91CF91CFBFCF911895F9
:1002200020917500222369F310917300112339F591
:1002300034303AF13093730020936F0010917000C6
:100240003BE0311B309370001CC000917300013003
:10025000B4F40AE53091610034FD14C000936100EC
:10026000C3E6D0E013C0052710E000C0000002BBC9
:100270001AC0052710E0221F1DC010E021C04AE56A
:1002800002C032ED432FC4E1D0E032E011B314617B
:10029000949A02B311BB54E120E865E320FF0527DF
:1002A00002BB279517951C3FF0F66695B8F7B1F796
:1002B00020FF052702BB279517951C3FD0F62795F1
:1002C000179517FF052700001C3F02BBB0F62991C8
:1002D0003A9519F70B7E10917400110FC651D0405A
:1002E00002BB11F010936E0010E41ABF006111B34D
:1002F0001B7E402F4B7E54E05A95F1F702BB11BB99
:1003000042BB7FCFFC018181882321F0813019F429
:10031000C09A01C0C09880E00895B89A9EE088E134
:100320000FB6F894A89581BD0FBE91BD10D18C9ADF
:100330008AEFA895EFE3FFE13197F1F700C00000E5
:100340008150B9F78C987894A89501D0FDCFCF93C0
:10035000DF938091730083500AF493C02091700062
:1003600090916F009D3209F08AC0883009F087C0F3
:10037000CCE0D0E0C21BD109C958DF4F83EC809399
:1003800063008AE580936100109262008881807624
:1003900019F0CE01B7DF6AC08A8110926C00998192
:1003A000911106C010926D002CE630E082E05AC038
:1003B000953031F4809374002CE630E080E052C038
:1003C0009630E1F59B81913041F488E390E0909381
:1003D00072008093710082E12DC0923041F486E278
:1003E00090E0909372008093710082E123C093307B
:1003F000F1F4811108C08EE690E090937200809332
:10040000710084E017C0813041F48CE590E0909356
:1004100072008093710082E10DC0823051F48AE451
:1004200090E0909372008093710082E103C080E0BD
:1004300001C080E090E49093620018C0983079F099
:10044000993031F4809376002CE630E080E00AC0E9
:1004500081E09A3009F080E02CE630E003C026E726
:1004600030E081E030937200209371009F81911100
:1004700004C09E81981708F4892F80936000109221
:1004800073008091610084FF4BC0809160008F3FBA
:1004900009F446C0C82F893008F0C8E08C1B80934F
:1004A0006000E3E6F0E0908188E889278083CC2330
:1004B00009F444C020917100309172008091620073
:1004C00086FF10C0A4E6B0E0F9018C2F94919D93B3
:1004D00031968150D9F72F5F3F4F8FEF8C0F280F48
:1004E000311D0EC0A4E6B0E0F9018C2F91919D93CF
:1004F0008150E1F72F5F3F4F8FEF8C0F280F311D99
:1005000030937200209371006C2F84E690E0E2DD5E
:10051000CC5FCC3018F48FEF80936000C093610003
:1005200080B3847189F493E180B3847169F491504C
:10053000D9F71092740010926E0006C06C2F84E6FA
:1005400090E0C8DDCC5FE7CFDF91CF91089585B70C
:10055000826085BF8BB780648BBF0895F894FFCF0E
:02056000FF5A40
:00000001FF
