S018000053696D706C655553424578616D706C652E73726563EC
S113000038C06CC051C050C04FC04EC09FC14CC01E
S11300104BC04AC049C048C047C046C045C044C0A0
S113002043C042C041C009021200010100803209EC
S1130030040000000000000012011001FF0000088D
S1130040C016DC0500010102000112035000750016
S113005070007000790055005300420012036F00D5
S113006062006400650076002E00610074000403E1
S1130070090411241FBECFE5D4E0DEBFCDBF10E0DC
S1130080A0E6B0E0E2EAF5E002C005900D92A236E7
S1130090B107D9F720E0A2E6B0E001C01D92AD3C63
S11300A0B207E1F78ED17BC2ABCFA82FB92F80E086
S11300B090E041E050EA609530E009C02D9182273C
S11300C09795879510F084279527305EC8F36F5F66
S11300D0A8F30895EADF8D939D930895CF93CFB746
S11300E0CF93C395839BE9F7839B09C0839B07C088
S11300F0839B05C0839B03C0839B01C0A1C0DF9386
S1130100C091B000DD27C954DF4F839B02C0DF914B
S1130110EBCF2F930F931F9300B32FEF03FB20F923
S11301204F933F9310B34FEF012703FB21F93BE0BB
S113013031C04E7F012F10B3216028C0102F4D7F96
S11301402260000000B329C04B7F2460012F00000F
S113015010B32BC010B3477F28602AC04F7E00B372
S113016020612CC04F7D10B320622FC04F7B00B3A1
S1130170206432C0422700B349934FEF0000102798
S113018013FB20F910B31C70C9F1297F91F20127E8
S113019003FB21F900B3237F89F2315058F1102772
S11301A013FB22F910B3277E79F2012703FB23F90D
S11301B02F7C81F200B3102713FB24F92F7971F2FD
S11301C000C010B3012703FB25F92F7359F200C0B7
S11301D000B3102713FB26F9223040F200C010B3FD
S11301E0012703FB27F9243028F64F77206810B342
S11301F00000F9CF10E41ABF002717C03B50319517
S1130200C31BD04010E41ABF0881033CE9F00B344F
S1130210D9F02091AE001981110F1213EDCF0936D8
S113022041F10D3211F0013E39F70093B5003F91D1
S11302304F911F910F912F91DF91CAB7C6FD51CFF6
S1130240CF91CFBFCF9118952091B500222379F398
S11302501091B300112311F5343012F13093B3002F
S11302602093AF001091B0003BE0311B3093B000FD
S113027017C00091B30001308CF40AE5309161009D
S113028034FD10C000936100C3EAD0E00FC027958D
S1130290A8F45150A9F4220F0000F9CF4AE503C095
S11302A042ED01C0432FC4E1D0E032E011B31C6041
S11302B0939A11BB02B320E41CE05F93012756E03C
S11302C002BB279520F4515021F4220FF9CF0127C6
S11302D056E000003B5A02BBD0F2279528F4515057
S11302E029F4220F0000F9CF012756E0279502BB1D
S11302F020F4515021F4220FF9CF012756E029911F
S1130300332302BB21F6037F1091B400110FC651B1
S1130310D04002BB11F01093AE0010E41ABF086085
S113032011B3137F402F437F5F9100C000C002BB15
S113033011BB42BB7CCF81EA8FBD89E08EBD8DE9C4
S113034090E09BBD8ABD99BD88BD08951F920F9210
S11303500FB60F9211248F939F9395B381E0892751
S113036085BB9F918F910F900FBE0F901F90189592
S1130370FC018181882371F08130A9F488B38170F4
S11303808093620082E690E09093B2008093B10083
S113039080E408959281913011F4C09A08959111E6
S11303A003C0C098089580E0089585B7846085BF30
S11303B08B988A9887B3836087BBA09AC09AC198A8
S11303C00895F3DFE5D08B9A2FE78FE492E1215073
S11303D080409040E1F700C000008B987894ABDF38
S11303E001D0FECFCF93DF938091B300835087FD7C
S11303F07FC09091B0002091AF002D3209F076C0FB
S1130400883009F073C0CCE0D0E0C91BD109C954CD
S1130410DF4F83EC8093A3008AE580936100109200
S1130420A2008881807619F0CE01A2DF56C08A81AD
S11304301092AC009981911106C01092AD002CEA83
S113044030E082E046C0953019F48093B40033C0A4
S1130450963059F59B81913019F488E390E01AC0E5
S1130460923019F486E290E015C09330C9F48111FA
S113047008C08EE690E09093B2008093B10084E0CF
S113048010C0813019F48CE590E004C0823041F44E
S11304908AE490E09093B2008093B10082E101C0BD
S11304A080E090E49093A20018C0983079F09930DD
S11304B031F48093B6002CEA30E080E00AC081E099
S11304C09A3009F080E02CEA30E003C026EB30E0FB
S11304D081E03093B2002093B1009F81911104C058
S11304E09E81981708F4892F809360001092B300BE
S11304F08091610084FF3FC0809160008F3FD9F1FB
S1130500C82F893008F0C8E08C1B8093600090915C
S1130510A30088E889278093A300CC2301F180916C
S1130520B1009091B2003091A2002C2F280FA4EAC0
S1130530B0E0FC0136FF06C034913D9331962E1392
S1130540FBCF04C031913D932E13FCCF01962FEFC6
S11305502C0F820F911D9093B2008093B1006C2FE9
S113056084EA90E0B7DDCC5FCC3019F08FEF809354
S11305706000C093610084E190B39C7031F48150B9
S1130580D9F71092B4001092AE00DF91CF91089584
S113059085B7826085BF8BB780648BBF0895F8945C
S10505A0FFCF87
S10505A2FF5AFA
S9030000FC
